S01200006B6164616932332D32342E7372656320
S11300000C9436030C945E030C945E030C945E0310
S11300100C945E030C945E030C945E030C945E03D8
S11300200C945E030C945E030C945E030C945E03C8
S11300300C945E030C945E030C945E030C945E03B8
S11300400C945E030C945E030C945E030C945E03A8
S11300500C945E030C945E030C945E030C945E0398
S11300600C945E030C945E0300000000000000008A
S1130070000000000000000000003CFEFE3C000008
S11300800000000D0D000000000E1E00001E0E00FA
S1130090000000000000000030FEFE30FEFE3000D4
S11300A0031F1F031F1F0300387C44FFFF44CC8839
S11300B0060E083F3F080F071C149CE0781C040040
S11300C0080E07010E0A0E0080DC7EE2BEDC400052
S11300D0070F0809070F08000000101E0E0000009B
S11300E000000000000000000000F8FE070100000E
S11300F00000030F1C10000000000107FEF80000C0
S11301000000101C0F03000080A0E0C0C0E0A0802D
S11301100002030101030200008080E0E08080000F
S113012000000003030000000000000000000000C5
S11301300000203C1C0000008080808080808000C3
S113014000000000000000000000000000000000AB
S113015000000C0C000000000000C0F03C0E020087
S11301600C0F030000000000F8FC86F23EFCF800CF
S113017003070F090C07030000080CFEFE00000033
S11301800008080F0F080800181C0682C67C3800F7
S11301900C0E0B09080C0C000602323A6EC68000E5
S11301A002060C080C07030080E0781EFEFE000027
S11301B0010101090F0F09003E3E121232E2C20092
S11301C002060C080C070300F8FC662266C48000D3
S11301D003070C080C070300060602C2F23E0E00D9
S11301E000000F0F0000000018BCE642E6BC180037
S11301F003070C080C070300387CC682C6FCF80011
S113020000040C080C0703000000006060000000FC
S11302100000000C0C000000000000606000000002
S11302200020301C0C0000000080C0603018080062
S113023000000103060C08004040404040404000DC
S113024002020202020202000008183060C08000AC
S113025000080C0603010000080C0682C2663C1864
S11302600000000D0D000000F0F808C8C8F8F00008
S1130270070F080B0B0B0100F0F81C0E1CF8F00024
S11302800F0F0101010F0F0002FEFE2222FEDC000F
S1130290080F0F08080F0700FCFE0202020E0C00F4
S11302A0070F0808080E060002FEFE0206FCF8000E
S11302B0080F0F080C07030002FEFE42E2060E00C0
S11302C0080F0F08080C0E0002FEFE42E2060E00A4
S11302D0080F0F0800000000FCFE0202829E9C0032
S11302E0070F08080C070F00FEFE404040FEFE000A
S11302F00F0F0000000F0F00000002FEFE020000BE
S11303000000080F0F08000000000002FEFE0200BB
S1130310060E08080F07000002FEFEE0F81E0600A5
S1130320080F0F00030F0C0002FEFE020000000085
S1130330080F0F08080C0E00FEFC38F038FCFE0015
S11303400F0F0000000F0F00FEFE78E080FEFE009D
S11303500F0F0000030F0F00FCFE020202FEFC0060
S1130360070F0808080F070002FEFE8282FE7C00C9
S1130370080F0F0800000000FCFE020202FEFC0051
S1130380070F0C0E1E3F370002FEFE82C27E3C00A9
S1130390080F0F00010F0E001C3E6242C28E0C00BB
S11303A0060E0808080F0700000602FEFE020600FB
S11303B00000080F0F080000FEFE000000FEFE0013
S11303C0070F0808080F0700FEFE000000FEFE00ED
S11303D00103060E06030100FEFE00E0E000FEFE3F
S11303E0030F0E03030E0F03061EF8E0F81E0600AB
S11303F00C0F0300030F0C00003E7EC0C07E3E00C5
S11304000000080F0F0800000E0682E23A1E0600E4
S11304100C0F0B08080C0E000000FEFE0202000088
S113042000000F0F08080000061E78E0800000009E
S113043000000001070E080000000202FEFE00009A
S1130440000008080F0F000010180C060C1810000C
S11304500000000000000000000000000000000098
S1130460202020202020202000000E1E100000004C
S1130470000000000000000000A0A0A0E0C00000F8
S1130480070F0808070F080002FEFE2020E0C00046
S1130490080F0708080F0700C0E020202060400074
S11304A0070F0808080C0400C0E02022FEFE00002C
S11304B0070F0808070F0800C0E0202020E0C00054
S11304C0070F0909090D040020FCFE22020E0C008E
S11304D0080F0F0800000000C0E02020C0E020004A
S11304E047CF8888FF7F000002FEFE2020E0C00086
S11304F0080F0F00000F0F00000020ECEC000000BC
S11305000000080F0F08000000000020ECEC0000C1
S113051060E08080FF7F000002FEFE0080E060005B
S1130520080F0F01030E0C00000002FEFE00000085
S11305300000080F0F080000E0E060C060E0C000A9
S11305400F0F0003000F0F0020E0C02020E0C000C8
S1130550000F0F00000F0F00C0E0202020E0C000BB
S1130560070F0808080F070020E0C02020E0C000A3
S113057080FFFF88080F0700C0E02020C0E02000B3
S1130580070F0888FFFF800020E0C06020E0C00063
S1130590080F0F0800000000C0E020202060400089
S11305A0040D0909090F06002020FCFE202000008C
S11305B00000070F080C0400E0E0000000E0E00089
S11305C0070F080808070F08E0E0000000E0E0005B
S11305D00103070E07030100E0E0008000E0E000F3
S11305E0070F0C070C0F070060E0C080C0E060003C
S11305F00C0E0703070E0C00E0E0000000E0E00032
S1130600074F4848487F3F0060602020A0E060001A
S11306100C0E0B09090C0C004040E0BE1F01010048
S11306200000000F1F1010000000003E3E000000FC
S11306300000001F1F0000000001011FBEE0404039
S11306400010101F0F00000040E0504840404000E0
S1130650000001020000000000000C12120C000057
S113066000000000000000004F04620611241FBEB9
S1130670CFEFD8E0DEBFCDBF11E0A0E0B1E0ECEDFC
S1130680FDE002C005900D92AC31B107D9F725E029
S1130690ACE1B1E001C01D92AF35B207E1F713E060
S11306A0C6E3D3E004C02197FE010E94E606C433EA
S11306B0D107C9F70E94D5050C94EC060C940000F0
S11306C089B1EFE3FCE93197F1F700C0000099B17B
S11306D0982796FD04C086FB882780F9089582E058
S11306E008959B012C5F3F4FFB014191BF01FC0129
S11306F04193CF0162177307B9F708950F931F93BE
S1130700CF93DF93CDB7DEB765970FB6F894DEBF0E
S11307100FBECDBF8CE191E00E94530488E0E6E077
S1130720F1E0DE011E9601900D928A95E1F78DE0CD
S1130730EEE0F1E0DE01119601900D928A95E1F769
S113074000E010E024E031E040E050E0B8018CE14A
S113075091E00E9464040F5F1F4F0F30110591F761
S113076000E010E024E031E041E050E0B8018CE129
S113077091E00E9464040F5F1F4F0430110591F74C
S113078000E010E02EE030E02C0F3D1F200F311F61
S113079041E050E0B8018CE191E00E9464040F5FF5
S11307A01F4F0730110571F700E010E024E031E03D
S11307B041E050E0B8018CE191E00E9464040F5FD5
S11307C01F4F0530110591F724E031E042E050E07D
S11307D060E070E08CE191E00E94640424E031E088
S11307E042E050E061E070E08CE191E00E9464043A
S11307F000E010E021E030E02C0F3D1F200F311FFE
S113080042E050E0B8018CE191E00E9464040F5F83
S11308101F4F0C30110571F724E031E042E050E045
S113082060E070E08CE191E00E94640424E031E037
S113083042E050E061E070E08CE191E00E946404E9
S113084000E010E024E031E040E050E0B8018CE149
S113085091E00E9464040F5F1F4F0F30110591F760
S11308608CE191E00E94A40465960FB6F894DEBF73
S11308700FBECDBFDF91CF911F910F9108950895C1
S11308800895FC01DB019C012C5F3F4F80E0419106
S11308909D91491381E0E217F307C9F708958CE1AC
S11308A091E00C944D05DC011196FC01EF5FFB4FC8
S11308B01D92EA17FB07E1F78F5B9B4F20E2219320
S11308C08E179F07E1F708950F931F93CF93DF933C
S11308D08C01FB0177FD3F96A4E0F595E795AA9579
S11308E0E1F7E40FF51FCB0160E170E00E94BE0662
S11308F0EC01CF0164E070E00E94BE06D9012D91A5
S113090030EE320F3036D8F4FC0134E0EE0FFF1F26
S11309103A95E1F7E00FF11FEC0FFD1FEF5FFB4F7E
S113092020832196C031D10551F701968430910579
S113093019F0C0E0D0E0E3CF80E090E0FACFDF919F
S1130940CF911F910F9108954F925F927F928F9252
S11309509F92AF92BF92CF92DF92EF92FF920F934A
S11309601F93CF93DF93EC019C012F5F3B4F4C010E
S113097080EC881A8BEF980A8216930608F447C015
S1130980790140E050E0570160E070E0D5018D91BD
S11309905D01B0E18B9FC001112488599140FC0195
S11309A001E010E0DB01A40FB51F2D014C0E5D1E0C
S11309B074906201C00ED11ED6017C9231960F5FF5
S11309C01F4F09301105A1F7FC01389600E010E033
S11309D0D490C8018F579F4F840D951DDC01DC9284
S11309E031960F5F1F4F0830110591F7685F7F4FF5
S11309F06038710559F6B0E1EB0EF11C53954115C1
S1130A00E4E05E0709F0BFCF205C3F4FB5CF8E0115
S1130A100F5F1F4FF12CCE010E948B0660E8CE01C0
S1130A200E94AA066F2D606BCE010E94AA06CE0119
S1130A300E94BA065801F0E8AF0EB11CCE010E9424
S1130A408B0660E4CE010E94AA06680188E0C80E05
S1130A50D11CD8016D918D01CE010E94AA06C01649
S1130A60D106B9F7CE010E94BA068601CA14DB0486
S1130A7029F7F394B8E0FB12CECFDF91CF911F9109
S1130A800F91FF90EF90DF90CF90BF90AF909F9029
S1130A908F907F905F904F900895CF93DF93EC01F8
S1130AA068E70E948006CE010E948B0660E0CE01BA
S1130AB00E94AA066EEACE010E94AA0668EACE0146
S1130AC00E94AA066FE3CE010E94AA0663EDCE013E
S1130AD00E94AA0660E0CE010E94AA0660E4CE014C
S1130AE00E94AA0660EACE010E94AA0660ECCE012A
S1130AF00E94AA066AEDCE010E94AA0662E1CE0116
S1130B000E94AA0661E8CE010E94AA066FEFCE01F8
S1130B100E94AA0664EACE010E94AA0666EACE01F1
S1130B200E94AA0665EDCE010E94AA0660E8CE01E5
S1130B300E94AA066EE2CE010E94AA0661E2CE01DC
S1130B400E94AA0660E0CE010E94AA066FE7CE01C9
S1130B500E94AA0662E2CE010E94AA0660E0CE01CB
S1130B600E94AA0667E0CE010E94AA066DE8CE01A3
S1130B700E94AA0664E1CE010E94AA066FEACE0191
S1130B800E94AA06CE010E94BA06FE01EF5FFB4F47
S1130B90CE018F5B9B4F20E22193E817F907E1F721
S1130BA0CE01DF91CF910C94A404CF93DF93CDB702
S1130BB0DEB760970FB6F894DEBF0FBECDBF80914D
S1130BC0000190910101A0910201B0910301898774
S1130BD09A87AB87BC87BE01675F7F4FCE010196C2
S1130BE00E947103CE010D960E944706CE010D9618
S1130BF00E94480681E090E01FEF019729F4CE019E
S1130C0001960E947E0304C0CE0101960E943F0417
S1130C10CE0140960E9460038130D1F7CE01409608
S1130C200E9460038111FACF1D831E831F831887DE
S1130C3084E0E82EF12CDD24DA94CE0140960E9463
S1130C406003811111C0CE010D960E944806082F41
S1130C50D81699F38E83BE016B5F7F4FCE01019648
S1130C600E944004D02EE9CFCE0140960E9460033A
S1130C708111FACF81E0E81AF108E9F6BE016B5F51
S1130C807F4FCE0101960E94410490E0B6CF0895B3
S1130C90CF93DF93EC018DE595E00E9472062A81E3
S1130CA090E0698170E0621B71090E94BE06CB016D
S1130CB06FEF70E00E94BE06822F860F8883DF915B
S1130CC0CF9108958DE595E00C946606389824E854
S1130CD020937A0020E620937C00FC01108220E817
S1130CE021830895FC0190917A00906490937A0096
S1130CF080917A0086FDFCCF8091790080830895ED
S1130D00FC0160838CE08093B8001092B90084E009
S1130D108093BC000895FC0184EA8093BC00809118
S1130D20BC0087FFFCCF9091B900987F983009F000
S1130D30FFCF80818093BB0084EC8093BC008091C2
S1130D40BC0087FFFCCF8091B900887F883109F00F
S1130D50FFCF08956093BB0084EC8093BC00809126
S1130D60BC0087FFFCCF8091B900887F883209F0EE
S1130D70FFCF089584E98093BC00089597FB072E64
S1130D8016F4009407D077FD09D00E94D20607FC20
S1130D9005D03EF4909581959F4F08957095619587
S1130DA07F4F0895AA1BBB1B51E107C0AA1FBB1F9D
S1130DB0A617B70710F0A61BB70B881F991F5A95E3
S1130DC0A9F780959095BC01CD010895EE0FFF1F02
S10F0DD00590F491E02D0994F894FFCFF5
S1130DDC010203042A004C6F636B65642100507597
S10F0DEC736820427574746F6E2100005F
S9030000FC
